{
  "_format": "hh3-artifact-1",
  "contractName": "SignUp",
  "sourceName": "contracts/SignUp.sol",
  "abi": [
    {
      "anonymous": false,
      "inputs": [
        {
          "indexed": true,
          "internalType": "address",
          "name": "userAddress",
          "type": "address"
        },
        {
          "indexed": false,
          "internalType": "string",
          "name": "username",
          "type": "string"
        },
        {
          "indexed": false,
          "internalType": "enum SignUp.UserType",
          "name": "userType",
          "type": "uint8"
        }
      ],
      "name": "UserRegistered",
      "type": "event"
    },
    {
      "inputs": [
        {
          "internalType": "address",
          "name": "_userAddress",
          "type": "address"
        }
      ],
      "name": "getUser",
      "outputs": [
        {
          "components": [
            {
              "internalType": "string",
              "name": "username",
              "type": "string"
            },
            {
              "internalType": "enum SignUp.UserType",
              "name": "userType",
              "type": "uint8"
            }
          ],
          "internalType": "struct SignUp.User",
          "name": "",
          "type": "tuple"
        }
      ],
      "stateMutability": "view",
      "type": "function"
    },
    {
      "inputs": [
        {
          "internalType": "string",
          "name": "_username",
          "type": "string"
        },
        {
          "internalType": "enum SignUp.UserType",
          "name": "_userType",
          "type": "uint8"
        }
      ],
      "name": "signUp",
      "outputs": [],
      "stateMutability": "nonpayable",
      "type": "function"
    }
  ],
  "bytecode": "0x6080604052348015600e575f5ffd5b50610cb68061001c5f395ff3fe608060405234801561000f575f5ffd5b5060043610610034575f3560e01c80636f77926b14610038578063c79a2b2b14610068575b5f5ffd5b610052600480360381019061004d9190610491565b610084565b60405161005f91906105d9565b60405180910390f35b610082600480360381019061007d9190610748565b61022f565b005b61008c6103fb565b5f5f5f8473ffffffffffffffffffffffffffffffffffffffff1673ffffffffffffffffffffffffffffffffffffffff1681526020019081526020015f205f0180546100d6906107cf565b905011610118576040517f08c379a000000000000000000000000000000000000000000000000000000000815260040161010f90610859565b60405180910390fd5b5f5f8373ffffffffffffffffffffffffffffffffffffffff1673ffffffffffffffffffffffffffffffffffffffff1681526020019081526020015f206040518060400160405290815f8201805461016e906107cf565b80601f016020809104026020016040519081016040528092919081815260200182805461019a906107cf565b80156101e55780601f106101bc576101008083540402835291602001916101e5565b820191905f5260205f20905b8154815290600101906020018083116101c857829003601f168201915b50505050508152602001600182015f9054906101000a900460ff1660018111156102125761021161052c565b5b60018111156102245761022361052c565b5b815250509050919050565b5f825111610272576040517f08c379a0000000000000000000000000000000000000000000000000000000008152600401610269906108e7565b60405180910390fd5b5f5f5f3373ffffffffffffffffffffffffffffffffffffffff1673ffffffffffffffffffffffffffffffffffffffff1681526020019081526020015f205f0180546102bc906107cf565b9050146102fe576040517f08c379a00000000000000000000000000000000000000000000000000000000081526004016102f590610975565b60405180910390fd5b60405180604001604052808381526020018260018111156103225761032161052c565b5b8152505f5f3373ffffffffffffffffffffffffffffffffffffffff1673ffffffffffffffffffffffffffffffffffffffff1681526020019081526020015f205f820151815f0190816103749190610b3c565b506020820151816001015f6101000a81548160ff0219169083600181111561039f5761039e61052c565b5b02179055509050503373ffffffffffffffffffffffffffffffffffffffff167fc2e5d5da58bd71d1a2d14cdef02a4256d971b728088f8190d067ccfbae3bd73e83836040516103ef929190610c52565b60405180910390a25050565b6040518060400160405280606081526020015f60018111156104205761041f61052c565b5b81525090565b5f604051905090565b5f5ffd5b5f5ffd5b5f73ffffffffffffffffffffffffffffffffffffffff82169050919050565b5f61046082610437565b9050919050565b61047081610456565b811461047a575f5ffd5b50565b5f8135905061048b81610467565b92915050565b5f602082840312156104a6576104a561042f565b5b5f6104b38482850161047d565b91505092915050565b5f81519050919050565b5f82825260208201905092915050565b8281835e5f83830152505050565b5f601f19601f8301169050919050565b5f6104fe826104bc565b61050881856104c6565b93506105188185602086016104d6565b610521816104e4565b840191505092915050565b7f4e487b71000000000000000000000000000000000000000000000000000000005f52602160045260245ffd5b6002811061056a5761056961052c565b5b50565b5f81905061057a82610559565b919050565b5f6105898261056d565b9050919050565b6105998161057f565b82525050565b5f604083015f8301518482035f8601526105b982826104f4565b91505060208301516105ce6020860182610590565b508091505092915050565b5f6020820190508181035f8301526105f1818461059f565b905092915050565b5f5ffd5b5f5ffd5b7f4e487b71000000000000000000000000000000000000000000000000000000005f52604160045260245ffd5b610637826104e4565b810181811067ffffffffffffffff8211171561065657610655610601565b5b80604052505050565b5f610668610426565b9050610674828261062e565b919050565b5f67ffffffffffffffff82111561069357610692610601565b5b61069c826104e4565b9050602081019050919050565b828183375f83830152505050565b5f6106c96106c484610679565b61065f565b9050828152602081018484840111156106e5576106e46105fd565b5b6106f08482856106a9565b509392505050565b5f82601f83011261070c5761070b6105f9565b5b813561071c8482602086016106b7565b91505092915050565b60028110610731575f5ffd5b50565b5f8135905061074281610725565b92915050565b5f5f6040838503121561075e5761075d61042f565b5b5f83013567ffffffffffffffff81111561077b5761077a610433565b5b610787858286016106f8565b925050602061079885828601610734565b9150509250929050565b7f4e487b71000000000000000000000000000000000000000000000000000000005f52602260045260245ffd5b5f60028204905060018216806107e657607f821691505b6020821081036107f9576107f86107a2565b5b50919050565b5f82825260208201905092915050565b7f5573756172696f206e616f20656e636f6e747261646f2e0000000000000000005f82015250565b5f6108436017836107ff565b915061084e8261080f565b602082019050919050565b5f6020820190508181035f83015261087081610837565b9050919050565b7f4f206e6f6d65206465207573756172696f206e616f20706f64652073657220765f8201527f617a696f2e000000000000000000000000000000000000000000000000000000602082015250565b5f6108d16025836107ff565b91506108dc82610877565b604082019050919050565b5f6020820190508181035f8301526108fe816108c5565b9050919050565b7f5573756172696f206a61207265676973747261646f206e6f2073697374656d615f8201527f2e00000000000000000000000000000000000000000000000000000000000000602082015250565b5f61095f6021836107ff565b915061096a82610905565b604082019050919050565b5f6020820190508181035f83015261098c81610953565b9050919050565b5f819050815f5260205f209050919050565b5f6020601f8301049050919050565b5f82821b905092915050565b5f600883026109ef7fffffffffffffffffffffffffffffffffffffffffffffffffffffffffffffffff826109b4565b6109f986836109b4565b95508019841693508086168417925050509392505050565b5f819050919050565b5f819050919050565b5f610a3d610a38610a3384610a11565b610a1a565b610a11565b9050919050565b5f819050919050565b610a5683610a23565b610a6a610a6282610a44565b8484546109c0565b825550505050565b5f5f905090565b610a81610a72565b610a8c818484610a4d565b505050565b5b81811015610aaf57610aa45f82610a79565b600181019050610a92565b5050565b601f821115610af457610ac581610993565b610ace846109a5565b81016020851015610add578190505b610af1610ae9856109a5565b830182610a91565b50505b505050565b5f82821c905092915050565b5f610b145f1984600802610af9565b1980831691505092915050565b5f610b2c8383610b05565b9150826002028217905092915050565b610b45826104bc565b67ffffffffffffffff811115610b5e57610b5d610601565b5b610b6882546107cf565b610b73828285610ab3565b5f60209050601f831160018114610ba4575f8415610b92578287015190505b610b9c8582610b21565b865550610c03565b601f198416610bb286610993565b5f5b82811015610bd957848901518255600182019150602085019450602081019050610bb4565b86831015610bf65784890151610bf2601f891682610b05565b8355505b6001600288020188555050505b505050505050565b5f610c15826104bc565b610c1f81856107ff565b9350610c2f8185602086016104d6565b610c38816104e4565b840191505092915050565b610c4c8161057f565b82525050565b5f6040820190508181035f830152610c6a8185610c0b565b9050610c796020830184610c43565b939250505056fea2646970667358221220c20ed84f1e079eb09ff68dbb3906461c89e68e74bf7570c1e102673410db7e5c64736f6c634300081c0033",
  "linkReferences": {},
  "deployedLinkReferences": {},
  "immutableReferences": {},
  "inputSourceName": "project/contracts/SignUp.sol",
  "buildInfoId": "solc-0_8_28-3c1958f3f01d6ffdb4a412d1ebf99ef202c0fc77"
}